{"abi":[{"type":"constructor","inputs":[],"stateMutability":"nonpayable"},{"type":"function","name":"affectionOf","inputs":[{"name":"tokenId","type":"uint256","internalType":"uint256"}],"outputs":[{"name":"affection","type":"uint16","internalType":"uint16"}],"stateMutability":"view"},{"type":"function","name":"approve","inputs":[{"name":"to","type":"address","internalType":"address"},{"name":"tokenId","type":"uint256","internalType":"uint256"}],"outputs":[],"stateMutability":"nonpayable"},{"type":"function","name":"balanceOf","inputs":[{"name":"owner","type":"address","internalType":"address"}],"outputs":[{"name":"","type":"uint256","internalType":"uint256"}],"stateMutability":"view"},{"type":"function","name":"getApproved","inputs":[{"name":"tokenId","type":"uint256","internalType":"uint256"}],"outputs":[{"name":"","type":"address","internalType":"address"}],"stateMutability":"view"},{"type":"function","name":"getUserTokenId","inputs":[{"name":"user","type":"address","internalType":"address"}],"outputs":[{"name":"","type":"uint256","internalType":"uint256"}],"stateMutability":"view"},{"type":"function","name":"isApprovedForAll","inputs":[{"name":"owner","type":"address","internalType":"address"},{"name":"operator","type":"address","internalType":"address"}],"outputs":[{"name":"","type":"bool","internalType":"bool"}],"stateMutability":"view"},{"type":"function","name":"mint","inputs":[{"name":"to","type":"address","internalType":"address"}],"outputs":[{"name":"","type":"uint256","internalType":"uint256"}],"stateMutability":"nonpayable"},{"type":"function","name":"name","inputs":[],"outputs":[{"name":"","type":"string","internalType":"string"}],"stateMutability":"view"},{"type":"function","name":"owner","inputs":[],"outputs":[{"name":"","type":"address","internalType":"address"}],"stateMutability":"view"},{"type":"function","name":"ownerOf","inputs":[{"name":"tokenId","type":"uint256","internalType":"uint256"}],"outputs":[{"name":"","type":"address","internalType":"address"}],"stateMutability":"view"},{"type":"function","name":"renounceOwnership","inputs":[],"outputs":[],"stateMutability":"nonpayable"},{"type":"function","name":"safeTransferFrom","inputs":[{"name":"from","type":"address","internalType":"address"},{"name":"to","type":"address","internalType":"address"},{"name":"tokenId","type":"uint256","internalType":"uint256"}],"outputs":[],"stateMutability":"nonpayable"},{"type":"function","name":"safeTransferFrom","inputs":[{"name":"from","type":"address","internalType":"address"},{"name":"to","type":"address","internalType":"address"},{"name":"tokenId","type":"uint256","internalType":"uint256"},{"name":"data","type":"bytes","internalType":"bytes"}],"outputs":[],"stateMutability":"nonpayable"},{"type":"function","name":"setApprovalForAll","inputs":[{"name":"operator","type":"address","internalType":"address"},{"name":"approved","type":"bool","internalType":"bool"}],"outputs":[],"stateMutability":"nonpayable"},{"type":"function","name":"setBaseURI","inputs":[{"name":"newBaseURI","type":"string","internalType":"string"}],"outputs":[],"stateMutability":"nonpayable"},{"type":"function","name":"supportsInterface","inputs":[{"name":"interfaceId","type":"bytes4","internalType":"bytes4"}],"outputs":[{"name":"","type":"bool","internalType":"bool"}],"stateMutability":"view"},{"type":"function","name":"symbol","inputs":[],"outputs":[{"name":"","type":"string","internalType":"string"}],"stateMutability":"view"},{"type":"function","name":"tokenOfOwnerByIndex","inputs":[{"name":"owner","type":"address","internalType":"address"},{"name":"index","type":"uint256","internalType":"uint256"}],"outputs":[{"name":"","type":"uint256","internalType":"uint256"}],"stateMutability":"view"},{"type":"function","name":"tokenURI","inputs":[{"name":"tokenId","type":"uint256","internalType":"uint256"}],"outputs":[{"name":"","type":"string","internalType":"string"}],"stateMutability":"view"},{"type":"function","name":"transferFrom","inputs":[{"name":"from","type":"address","internalType":"address"},{"name":"to","type":"address","internalType":"address"},{"name":"tokenId","type":"uint256","internalType":"uint256"}],"outputs":[],"stateMutability":"nonpayable"},{"type":"function","name":"transferOwnership","inputs":[{"name":"newOwner","type":"address","internalType":"address"}],"outputs":[],"stateMutability":"nonpayable"},{"type":"function","name":"updateAffection","inputs":[{"name":"tokenId","type":"uint256","internalType":"uint256"},{"name":"delta","type":"int16","internalType":"int16"}],"outputs":[],"stateMutability":"nonpayable"},{"type":"event","name":"AffectionUpdated","inputs":[{"name":"tokenId","type":"uint256","indexed":true,"internalType":"uint256"},{"name":"newAffection","type":"uint16","indexed":false,"internalType":"uint16"}],"anonymous":false},{"type":"event","name":"Approval","inputs":[{"name":"owner","type":"address","indexed":true,"internalType":"address"},{"name":"approved","type":"address","indexed":true,"internalType":"address"},{"name":"tokenId","type":"uint256","indexed":true,"internalType":"uint256"}],"anonymous":false},{"type":"event","name":"ApprovalForAll","inputs":[{"name":"owner","type":"address","indexed":true,"internalType":"address"},{"name":"operator","type":"address","indexed":true,"internalType":"address"},{"name":"approved","type":"bool","indexed":false,"internalType":"bool"}],"anonymous":false},{"type":"event","name":"OwnershipTransferred","inputs":[{"name":"previousOwner","type":"address","indexed":true,"internalType":"address"},{"name":"newOwner","type":"address","indexed":true,"internalType":"address"}],"anonymous":false},{"type":"event","name":"Transfer","inputs":[{"name":"from","type":"address","indexed":true,"internalType":"address"},{"name":"to","type":"address","indexed":true,"internalType":"address"},{"name":"tokenId","type":"uint256","indexed":true,"internalType":"uint256"}],"anonymous":false},{"type":"error","name":"ERC721IncorrectOwner","inputs":[{"name":"sender","type":"address","internalType":"address"},{"name":"tokenId","type":"uint256","internalType":"uint256"},{"name":"owner","type":"address","internalType":"address"}]},{"type":"error","name":"ERC721InsufficientApproval","inputs":[{"name":"operator","type":"address","internalType":"address"},{"name":"tokenId","type":"uint256","internalType":"uint256"}]},{"type":"error","name":"ERC721InvalidApprover","inputs":[{"name":"approver","type":"address","internalType":"address"}]},{"type":"error","name":"ERC721InvalidOperator","inputs":[{"name":"operator","type":"address","internalType":"address"}]},{"type":"error","name":"ERC721InvalidOwner","inputs":[{"name":"owner","type":"address","internalType":"address"}]},{"type":"error","name":"ERC721InvalidReceiver","inputs":[{"name":"receiver","type":"address","internalType":"address"}]},{"type":"error","name":"ERC721InvalidSender","inputs":[{"name":"sender","type":"address","internalType":"address"}]},{"type":"error","name":"ERC721NonexistentToken","inputs":[{"name":"tokenId","type":"uint256","internalType":"uint256"}]},{"type":"error","name":"OwnableInvalidOwner","inputs":[{"name":"owner","type":"address","internalType":"address"}]},{"type":"error","name":"OwnableUnauthorizedAccount","inputs":[{"name":"account","type":"address","internalType":"address"}]}],"bytecode":{"object":"0x6080346103315760406001600160401b0382820181811184821017610283578252600b835260206a2bb7b7a932b630ba34b7b760a91b81850152825191838301838110828211176102835784526003835262574f4f60e81b828401528451818111610283578061006f5f54610335565b96601f97888111610305575b5084908883116001146102a2575f92610297575b50508160011b915f199060031b1c1916175f555b825190811161028357806001936100ba8554610335565b87811161024d575b5083908783116001146101ee575f926101e3575b50505f19600383901b1c191690831b1782555b33156101cc5760068054336001600160a01b03198216811790925593947f75324e4c676d67737a673133705972444b456f69752f00000000000000000000949091906001600160a01b03167f8be0079c531659141344cd1fd0a4f28419497f9722a3daafe3b4186f6b6457e05f80a3610163600854610335565b8181116101aa575b5050606d60085560085f525f207f697066733a2f2f516d653773733341525667787636725871565069696b4d4a38815501555161157190816103848239f35b60026101c59260085f52845f20920160051c8201910161036d565b5f8061016b565b8251631e4fbdf760e01b81525f6004820152602490fd5b015190505f806100d6565b90859350601f19831691845f52855f20925f5b87828210610237575050841161021f575b505050811b0182556100e9565b01515f1960f88460031b161c191690555f8080610212565b8385015186558997909501949384019301610201565b61027490865f52855f208980860160051c82019288871061027a575b0160051c019061036d565b5f6100c2565b92508192610269565b634e487b7160e01b5f52604160045260245ffd5b015190505f8061008f565b5f8080528681209350601f198516905b878282106102ef5750509084600195949392106102d7575b505050811b015f556100a3565b01515f1960f88460031b161c191690555f80806102ca565b60018596829396860151815501950193016102b2565b61032b905f8052865f208a80860160051c82019289871061027a570160051c019061036d565b5f61007b565b5f80fd5b90600182811c92168015610363575b602083101461034f57565b634e487b7160e01b5f52602260045260245ffd5b91607f1691610344565b818110610378575050565b5f815560010161036d56fe608060409080825260049081361015610016575f80fd5b5f3560e01c90816301ffc9a714610e675750806306fdde0314610dba578063081812fc14610d81578063095ea7b314610ca557806323b872dd14610c8e5780632f745c5914610c665780633ba5fb6614610c3a57806342842e0e14610c1257806355f804b314610a8b5780636352211e14610a5b5780636a6278421461091557806370a08231146108f0578063715018a6146108955780638da5cb5b1461086d57806395d89b41146107995780639f1bf7d01461062a578063a22cb4651461058e578063b88d4fde14610507578063c87b56dd1461025a578063e985e9c51461020c578063f2fde38b146101835763fefd4e4f14610112575f80fd5b3461017f57602036600319011261017f5761012b610ef5565b9061013582611333565b1561014d57602083610146846111b4565b9051908152f35b606490602084519162461bcd60e51b8352820152600c60248201526b139bc8139195081bdddb995960a21b6044820152fd5b5f80fd5b503461017f57602036600319011261017f5761019d610ef5565b906101a66114ef565b6001600160a01b039182169283156101f6575050600654826001600160601b0360a01b821617600655167f8be0079c531659141344cd1fd0a4f28419497f9722a3daafe3b4186f6b6457e05f80a3005b905f6024925191631e4fbdf760e01b8352820152fd5b823461017f578060031936011261017f57602090610228610ef5565b610230610f0b565b9060018060a01b038091165f5260058452825f2091165f52825260ff815f20541690519015158152f35b503461017f576020908160031936011261017f5780359061027a826114b5565b50828451925f92600854908561028f83610fc4565b9586825285820196600194876001821691825f146104ea575050600114610493575b50906102be910387610f86565b855115610476578283915f947a184f03e93ff9f4daa797ed6e38ed64bf6a1f0100000000000000009081811015610469575b5050856d04ee2d6d415b85acef81000000008085101561045b575b5050662386f26fc100008084101561044c575b506305f5e1008084101561043d575b506127108084101561042f575b5050606482101561041f575b600a80921015610415575b91889281602161037b6001880161037361036a82610fa8565b98519889610f86565b808852610fa8565b8689019790601f1901368937860101905b6103e0575b50505050936103cb92916103dc9588519586935180918686015e830190848201905f8252519283915e015f83820152038084520182610f86565b925b51928284938452830190610ed1565b0390f35b5f19019083906f181899199a1a9b1b9c1cb0b131b232b360811b8282061a8353049182156104105791908261038c565b610391565b9260010192610351565b9290606460029104910192610346565b940193909104905f8061033a565b6008919593049201935f61032d565b6010919593049201935f61031e565b95019490920491855f61030b565b8b96500492505f806102f0565b5050505050506103dc825161048a81610f56565b5f8152926103cd565b60085f90815291507ff3f7a9fe364faab93b216da50a3214154f22a0a2b415b23a84c8169e8b636ee35b8183106104d2575050810185016102be6102b1565b8054838b018901528a978a94509092019185016104bd565b60ff19168a5291151560051b840190910191506102be90506102b1565b50903461017f57608036600319011261017f57610522610ef5565b61052a610f0b565b6064359367ffffffffffffffff851161017f573660238601121561017f5784013561056061055782610fa8565b94519485610f86565b808452366024828701011161017f576020815f92602461058c9801838801378501015260443591611369565b005b50903461017f578060031936011261017f576105a8610ef5565b906024359182151580930361017f576001600160a01b03169283156106155750335f526005602052805f20835f52602052805f2060ff1981541660ff8416179055519081527f17307eab39ab6107e8899845ad3d59bd9653f200f220920489ca2b5937696c3160203392a3005b836024925191630b61174360e31b8352820152fd5b50903461017f578060031936011261017f57813590602435908160010b9182810361017f576106576114ef565b835f526020926009845261ffff809281855f205416925f81135f146106e8575016018181116106d5575f8051602061151c833981519152949550818161271091829116116106cd575b50855f526009845281835f20911661ffff198254161790555b845f5260098352815f2054169051908152a2005b90505f6106a0565b601186634e487b7160e01b5f525260245ffd5b9150505f811261070b575b50505f8051602061151c8339815191529394506106b9565b617fff198114610786575f0382169080821115610751575050835f8051602061151c8339815191529495505f5260098352815f2061ffff1981541690555b84935f6106f3565b038181116106d557845f8051602061151c8339815191529596505f526009845281835f20911661ffff19825416179055610749565b601187634e487b7160e01b5f525260245ffd5b823461017f575f36600319011261017f578051905f9082600192600154936107c085610fc4565b90818452602095866001821691825f1461084b5750506001146107f0575b50506103dc92916103cd910385610f86565b9085925060015f527fb10e2d527612073b26eecdfd717e6a320cf44b4afac2b0732d9fcbe2b7fa0cf6915f925b82841061083357505050820101816103cd6107de565b8054848a01860152889550879490930192810161081d565b60ff19168682015292151560051b850190920192508391506103cd90506107de565b823461017f575f36600319011261017f5760065490516001600160a01b039091168152602090f35b3461017f575f36600319011261017f576108ad6114ef565b600680546001600160a01b031981169091555f906001600160a01b03167f8be0079c531659141344cd1fd0a4f28419497f9722a3daafe3b4186f6b6457e08280a3005b823461017f57602036600319011261017f57602090610146610910610ef5565b611333565b503461017f576020918260031936011261017f57610931610ef5565b9161093a6114ef565b6007549261094784611192565b6007556001600160a01b03908116908115610a45578490815f5260028752845f205416918215159283610a14575b5f82815260038952868120805460010190558381526002895286812080546001600160a01b031916841790557fddf252ad1be2c89b69c2b068fc378daa952ba7f163c4a11628f55a4df523b3ef9080a46109ff5750815f5260098352815f8051602061151c83398151915284835f20611388908161ffff198254161790558451908152a251908152f35b5f60249251916339e3563760e11b8352820152fd5b5f83815260046020526040812080546001600160a01b03191690558181526003895286902080545f19019055610975565b8351633250574960e11b81525f81850152602490fd5b50903461017f57602036600319011261017f57610a7a602092356114b5565b90516001600160a01b039091168152f35b503461017f57602090602060031936011261017f57803567ffffffffffffffff9182821161017f573660238301121561017f5781013591821161017f57602490366024848301011161017f57610adf6114ef565b610aea600854610fc4565b601f8111610bb3575b505f91601f8411600114610b3257508293505f92610b24575b50505f19600383901b1c191660019190911b17600855005b602492500101358280610b0c565b91601f1984167ff3f7a9fe364faab93b216da50a3214154f22a0a2b415b23a84c8169e8b636ee3935f905b828210610b98575050600195508411610b7c575b505050811b01600855005b01602401355f19600384901b60f8161c19169055828080610b71565b90929487600181928489890101358155019601930190610b5d565b7ff3f7a9fe364faab93b216da50a3214154f22a0a2b415b23a84c8169e8b636ee3601f850160051c81019160208610610c08575b601f0160051c01905b818110610bfd5750610af3565b5f8155600101610bf0565b9091508190610be7565b823461017f5761058c90610c2536610f21565b91925192610c3284610f56565b5f8452611369565b50903461017f57602036600319011261017f57602091355f526009825261ffff815f2054169051908152f35b823461017f578060031936011261017f57602090610146610c85610ef5565b6024359061128e565b3461017f5761058c610c9f36610f21565b91610ffc565b50903461017f578060031936011261017f57610cbf610ef5565b91602435610ccc816114b5565b33151580610d6e575b80610d47575b610d31576001600160a01b039485169482918691167f8c5be1e5ebec7d5bd14f71427d1e84f3dd0314c0f7b2291e5b200ac8c7c3b9255f80a45f526020525f20906001600160601b0360a01b8254161790555f80f35b835163a9fbf51f60e01b81523381850152602490fd5b5060018060a01b0381165f526005602052835f20335f5260205260ff845f20541615610cdb565b506001600160a01b038116331415610cd5565b50903461017f57602036600319011261017f578160209235610da2816114b5565b505f52825260018060a01b03815f2054169051908152f35b823461017f575f36600319011261017f578051905f90825f5492610ddd84610fc4565b808352602094600190866001821691825f1461084b575050600114610e0e5750506103dc92916103cd910385610f86565b5f80805286935091907f290decd9548b62a8d60345a988386fc84ba6bc95484008f6362f93160ef3e5635b828410610e4f57505050820101816103cd6107de565b8054848a018601528895508794909301928101610e39565b823461017f57602036600319011261017f57359063ffffffff60e01b821680920361017f576020916380ac58cd60e01b8114908115610ec0575b8115610eaf575b5015158152f35b6301ffc9a760e01b14905083610ea8565b635b5e139f60e01b81149150610ea1565b805180835260209291819084018484015e5f828201840152601f01601f1916010190565b600435906001600160a01b038216820361017f57565b602435906001600160a01b038216820361017f57565b606090600319011261017f576001600160a01b0390600435828116810361017f5791602435908116810361017f579060443590565b6020810190811067ffffffffffffffff821117610f7257604052565b634e487b7160e01b5f52604160045260245ffd5b90601f8019910116810190811067ffffffffffffffff821117610f7257604052565b67ffffffffffffffff8111610f7257601f01601f191660200190565b90600182811c92168015610ff2575b6020831014610fde57565b634e487b7160e01b5f52602260045260245ffd5b91607f1691610fd3565b6001600160a01b03918216929091831561117a57815f52602092600284528260409583875f20541695331515806110e8575b50600290876110b7575b825f5260038152885f2060018154019055835f5252865f20816001600160601b0360a01b825416179055857fddf252ad1be2c89b69c2b068fc378daa952ba7f163c4a11628f55a4df523b3ef5f80a416928383036110965750505050565b6064945051926364283d7b60e01b8452600484015260248301526044820152fd5b5f84815260046020526040812080546001600160a01b03191690558881526003825289902080545f19019055611038565b9192509080611139575b15611100579084915f61102e565b86858761111d576024915190637e27328960e01b82526004820152fd5b604491519063177e802f60e01b82523360048301526024820152fd5b50338614801561115e575b806110f25750845f52600481523384885f205416146110f2565b50855f5260058152865f20335f52815260ff875f205416611144565b604051633250574960e11b81525f6004820152602490fd5b5f1981146111a05760010190565b634e487b7160e01b5f52601160045260245ffd5b6111bd81611333565b15611253575f915f91600754925b8381106112095760405162461bcd60e51b815260206004820152600f60248201526e151bdad95b881b9bdd08199bdd5b99608a1b6044820152606490fd5b5f818152600260205260409020546001600160a01b03838116911614611232575b6001016111cb565b93801561124c57611244600191611192565b94905061122a565b5090915050565b60405162461bcd60e51b8152602060048201526013602482015272496e646578206f7574206f6620626f756e647360681b6044820152606490fd5b909161129982611333565b831015611253575f925f92600754935b8481106112e75760405162461bcd60e51b815260206004820152600f60248201526e151bdad95b881b9bdd08199bdd5b99608a1b6044820152606490fd5b5f818152600260205260409020546001600160a01b03838116911614611310575b6001016112a9565b9482811461132b57611323600191611192565b959050611308565b509192505050565b6001600160a01b03168015611351575f52600360205260405f205490565b6040516322718ad960e21b81525f6004820152602490fd5b9192611376848385610ffc565b813b611383575b50505050565b604051630a85bd0160e11b8082523360048301526001600160a01b039485166024830152604482019590955260806064820152602095939092169391908590829081906113d4906084830190610ed1565b03815f885af15f9181611475575b5061143f575050503d5f14611438573d6113fb81610fa8565b906114096040519283610f86565b81523d5f8483013e5b8051928361143357604051633250574960e11b815260048101849052602490fd5b019050fd5b6060611412565b9193506001600160e01b03199091160361145d57505f80808061137d565b60249060405190633250574960e11b82526004820152fd5b9091508581813d83116114ae575b61148d8183610f86565b8101031261017f57516001600160e01b03198116810361017f57905f6113e2565b503d611483565b5f818152600260205260409020546001600160a01b03169081156114d7575090565b60249060405190637e27328960e01b82526004820152fd5b6006546001600160a01b0316330361150357565b60405163118cdaa760e01b8152336004820152602490fdfeb8d8125299d1688d100650cae00956249f4cc58f81bba20cca31508e07a87444a26469706673582212206df720ddf7074bd5bb2f5bd18a70c85c7018ee9d5c086be5273a86939e68596864736f6c63430008190033","linkReferences":{}},"methodIdentifiers":{"affectionOf(uint256)":"3ba5fb66","approve(address,uint256)":"095ea7b3","balanceOf(address)":"70a08231","getApproved(uint256)":"081812fc","getUserTokenId(address)":"fefd4e4f","isApprovedForAll(address,address)":"e985e9c5","mint(address)":"6a627842","name()":"06fdde03","owner()":"8da5cb5b","ownerOf(uint256)":"6352211e","renounceOwnership()":"715018a6","safeTransferFrom(address,address,uint256)":"42842e0e","safeTransferFrom(address,address,uint256,bytes)":"b88d4fde","setApprovalForAll(address,bool)":"a22cb465","setBaseURI(string)":"55f804b3","supportsInterface(bytes4)":"01ffc9a7","symbol()":"95d89b41","tokenOfOwnerByIndex(address,uint256)":"2f745c59","tokenURI(uint256)":"c87b56dd","transferFrom(address,address,uint256)":"23b872dd","transferOwnership(address)":"f2fde38b","updateAffection(uint256,int16)":"9f1bf7d0"},"id":18}