{"abi":[{"type":"constructor","inputs":[{"name":"_relationNFT","type":"address","internalType":"address"}],"stateMutability":"nonpayable"},{"type":"function","name":"breakupTime","inputs":[{"name":"user","type":"address","internalType":"address"}],"outputs":[{"name":"timestamp","type":"uint256","internalType":"uint256"}],"stateMutability":"view"},{"type":"function","name":"createCompanion","inputs":[{"name":"user","type":"address","internalType":"address"}],"outputs":[{"name":"","type":"uint256","internalType":"uint256"}],"stateMutability":"nonpayable"},{"type":"function","name":"isSwapAllowed","inputs":[{"name":"user","type":"address","internalType":"address"},{"name":"amountIn","type":"uint256","internalType":"uint256"},{"name":"questHash","type":"bytes32","internalType":"bytes32"}],"outputs":[{"name":"allowed","type":"bool","internalType":"bool"},{"name":"reason","type":"string","internalType":"string"}],"stateMutability":"view"},{"type":"function","name":"lastReconcile","inputs":[{"name":"user","type":"address","internalType":"address"}],"outputs":[{"name":"timestamp","type":"uint256","internalType":"uint256"}],"stateMutability":"view"},{"type":"function","name":"lastSwap","inputs":[{"name":"user","type":"address","internalType":"address"}],"outputs":[{"name":"timestamp","type":"uint256","internalType":"uint256"}],"stateMutability":"view"},{"type":"function","name":"owner","inputs":[],"outputs":[{"name":"","type":"address","internalType":"address"}],"stateMutability":"view"},{"type":"function","name":"questValidity","inputs":[{"name":"questHash","type":"bytes32","internalType":"bytes32"}],"outputs":[{"name":"validUntil","type":"uint256","internalType":"uint256"}],"stateMutability":"view"},{"type":"function","name":"reconcile","inputs":[{"name":"user","type":"address","internalType":"address"}],"outputs":[],"stateMutability":"nonpayable"},{"type":"function","name":"relationNFT","inputs":[],"outputs":[{"name":"","type":"address","internalType":"contract WooRelationNFT"}],"stateMutability":"view"},{"type":"function","name":"renounceOwnership","inputs":[],"outputs":[],"stateMutability":"nonpayable"},{"type":"function","name":"setQuestValidity","inputs":[{"name":"questHash","type":"bytes32","internalType":"bytes32"},{"name":"validUntil","type":"uint256","internalType":"uint256"}],"outputs":[],"stateMutability":"nonpayable"},{"type":"function","name":"transferOwnership","inputs":[{"name":"newOwner","type":"address","internalType":"address"}],"outputs":[],"stateMutability":"nonpayable"},{"type":"function","name":"updateAffection","inputs":[{"name":"user","type":"address","internalType":"address"},{"name":"delta","type":"int16","internalType":"int16"},{"name":"questHash","type":"bytes32","internalType":"bytes32"},{"name":"isGift","type":"bool","internalType":"bool"},{"name":"hasEduFlag","type":"bool","internalType":"bool"}],"outputs":[],"stateMutability":"payable"},{"type":"event","name":"BreakUp","inputs":[{"name":"user","type":"address","indexed":true,"internalType":"address"},{"name":"reason","type":"string","indexed":false,"internalType":"string"}],"anonymous":false},{"type":"event","name":"OwnershipTransferred","inputs":[{"name":"previousOwner","type":"address","indexed":true,"internalType":"address"},{"name":"newOwner","type":"address","indexed":true,"internalType":"address"}],"anonymous":false},{"type":"event","name":"Reconciled","inputs":[{"name":"user","type":"address","indexed":true,"internalType":"address"},{"name":"newAffection","type":"uint16","indexed":false,"internalType":"uint16"}],"anonymous":false},{"type":"error","name":"BreakupCooldown","inputs":[]},{"type":"error","name":"InvalidUser","inputs":[]},{"type":"error","name":"OwnableInvalidOwner","inputs":[{"name":"owner","type":"address","internalType":"address"}]},{"type":"error","name":"OwnableUnauthorizedAccount","inputs":[{"name":"account","type":"address","internalType":"address"}]}],"bytecode":{"object":"0x60a0346100fc57601f610fa938819003918201601f19168301916001600160401b03831184841017610100578084926020946040528339810103126100fc57516001600160a01b0390818116908190036100fc5733156100e4575f543360018060a01b03198216175f55604051923391167f8be0079c531659141344cd1fd0a4f28419497f9722a3daafe3b4186f6b6457e05f80a3608052610e9490816101158239608051818181610152015281816101f301528181610272015281816102c70152818161031b015281816107d9015281816108e901528181610bc10152610dc70152f35b604051631e4fbdf760e01b81525f6004820152602490fd5b5f80fd5b634e487b7160e01b5f52604160045260245ffdfe6080806040526004361015610012575f80fd5b5f905f3560e01c908163080f0e6314610abd5750806309a186351461088f5780632aa597d114610782578063341da3131461074957806348e1421f1461071a5780635006d241146106e15780635f4e947c146106a8578063715018a61461064f57806388d60caa146105ed5780638da5cb5b146105c6578063ae77e1ff14610181578063e283a6c41461013c5763f2fde38b146100ad575f80fd5b34610139576020366003190112610139576100c6610ae3565b6100ce610e33565b6001600160a01b03908116908115610120575f54826bffffffffffffffffffffffff60a01b8216175f55167f8be0079c531659141344cd1fd0a4f28419497f9722a3daafe3b4186f6b6457e05f80a380f35b604051631e4fbdf760e01b815260048101849052602490fd5b80fd5b50346101395780600319360112610139576040517f00000000000000000000000000000000000000000000000000000000000000006001600160a01b03168152602090f35b5060a036600319011261013957610196610ae3565b60243560010b60243503610458576064351515606435036105c2576084351515608435036105c2576101c6610e33565b6101cf81610d9d565b5f1981146105b057604051631dd2fdb360e11b8152600481018290526020816024817f00000000000000000000000000000000000000000000000000000000000000006001600160a01b03165afa90811561042a578491610591575b506001600160a01b0383168452600260205260408420548490602435908015159081610576575b5061053e575b604435151580610527575b6104dc575b60643561045c575b7f00000000000000000000000000000000000000000000000000000000000000006001600160a01b03163b15610458576040516309f1bf7d60e41b81526004810185905260019190910b60248201528181604481837f00000000000000000000000000000000000000000000000000000000000000006001600160a01b03165af1801561044d57610435575b5050604051631dd2fdb360e11b815260048101929092526020826024817f00000000000000000000000000000000000000000000000000000000000000006001600160a01b03165afa91821561042a5784926103f9575b5061ffff809116151591826103ee575b5050610384575b6001600160a01b0316815260026020526040812042905580f35b6001600160a01b0381168083526004602090815260408085204290558051828152600d928101929092526c2637bb9030b33332b1ba34b7b760991b908201527f0cd95a70bb55acc5cfefd69b2bbc7ef6b0f1687790aee9609762e3a706efb67c90606090a261036a565b161590505f80610363565b61041c91925060203d602011610423575b6104148183610b3d565b810190610b5f565b905f610353565b503d61040a565b6040513d86823e3d90fd5b61043e90610af9565b61044957835f6102fc565b8380fd5b6040513d84823e3d90fd5b5080fd5b9050670de0b6b3a764000034046064810290808204606414901517156104c85761ffff906103e88082116104c0575b501660010b9060010b01617fff198112617fff8213176104ac578490610270565b634e487b7160e01b5f52601160045260245ffd5b90505f61048b565b634e487b7160e01b86526011600452602486fd5b617fff915060010b60c801617fff19828213818312176104ac57869282608435610509575b505050610268565b60010b603201935083139083121790506104ac5784905f8080610501565b506044358252600160205260408220544210610263565b505060243560010b6101f31901617fff198112617fff821317610562578490610258565b634e487b7160e01b85526011600452602485fd5b9192505042814203116104c85790603c86924203105f610252565b6105aa915060203d602011610423576104148183610b3d565b5f61022b565b60405163fd684c3b60e01b8152600490fd5b5f80fd5b5034610139578060031936011261013957546040516001600160a01b039091168152602090f35b503461013957606036600319011261013957606060209161061861060f610ae3565b60443590610b79565b939091604051948593151584526040838501528051928391826040870152018585015e828201840152601f01601f19168101030190f35b5034610139578060031936011261013957610668610e33565b5f80546001600160a01b0319811682556001600160a01b03167f8be0079c531659141344cd1fd0a4f28419497f9722a3daafe3b4186f6b6457e08280a380f35b5034610139576020366003190112610139576020906040906001600160a01b036106d0610ae3565b168152600383522054604051908152f35b5034610139576020366003190112610139576020906040906001600160a01b03610709610ae3565b168152600283522054604051908152f35b503461013957604036600319011261013957610734610e33565b60043581526001602052602435604082205580f35b5034610139576020366003190112610139576020906040906001600160a01b03610771610ae3565b168152600483522054604051908152f35b503461013957602090816003193601126101395761079e610ae3565b5f196107a982610d9d565b0361084a576040516335313c2160e11b81526001600160a01b0391821660048201529083908290602490829086907f0000000000000000000000000000000000000000000000000000000000000000165af191821561083e5791610811575b50604051908152f35b90508181813d8311610837575b6108288183610b3d565b810103126105c257515f610808565b503d61081e565b604051903d90823e3d90fd5b60405162461bcd60e51b815260048101849052601c60248201527f5573657220616c726561647920686173206120636f6d70616e696f6e000000006044820152606490fd5b50346105c2576020806003193601126105c2576108aa610ae3565b906108b482610d9d565b905f1982146105b05760018060a01b0380931692835f526003825260405f20546201518081018091116104ac574210610a78577f0000000000000000000000000000000000000000000000000000000000000000169160405190631dd2fdb360e11b8083528160048401528383602481885afa928315610a1d575f93610a59575b5061ffff80931615610a28575b843b156105c2576040516309f1bf7d60e41b81526004810183905261012c60248201525f81604481838a5af18015610a1d57610a03575b509060248492878952600384524260408a20556040519687938492835260048301525afa9081156109f8577f2e8515bc871d21a7eaff9d22520c4a34d54229f0819d54f61713db833003992e9386926109d9575b5060405191168152a280f35b6109f1919250833d8511610423576104148183610b3d565b905f6109cd565b6040513d87823e3d90fd5b8492919750610a1190610af9565b60245f97919250610979565b6040513d5f823e3d90fd5b855f526004845260405f205461070881018091116104ac57421015610942576040516373fc6f1560e11b8152600490fd5b610a71919350843d8611610423576104148183610b3d565b915f610935565b60405162461bcd60e51b815260048101839052601960248201527f5265636f6e63696c6520636f6f6c646f776e20616374697665000000000000006044820152606490fd5b346105c25760203660031901126105c2576020906004355f526001825260405f20548152f35b600435906001600160a01b03821682036105c257565b67ffffffffffffffff8111610b0d57604052565b634e487b7160e01b5f52604160045260245ffd5b6040810190811067ffffffffffffffff821117610b0d57604052565b90601f8019910116810190811067ffffffffffffffff821117610b0d57604052565b908160209103126105c2575161ffff811681036105c25790565b6001600160a01b03808216939290918415610d6e57610b9790610d9d565b935f198514610d38576040948551938491631dd2fdb360e11b8352600483015281602460209687937f0000000000000000000000000000000000000000000000000000000000000000165afa8015610d2e5761ffff915f91610d11575b5016908115610cb5575b506113881115610c8a578015159081610c76575b50610c4f577f4c6f7720616666656374696f6e2c20636f6d706c6574652071756573740000005f935191610c4583610b21565b601d835282015290565b6a15985b1a59081c5d595cdd60aa1b6001935191610c6c83610b21565b600b835282015290565b90505f5260018152825f205442105f610c12565b506d2434b3b41030b33332b1ba34b7b760911b6001935191610cab83610b21565b600e835282015290565b5f5260048352845f205461070881018091116104ac574210610cd7575f610bfe565b50507f427265616b757020636f6f6c646f776e206163746976650000000000000000005f935191610d0783610b21565b6017835282015290565b610d289150853d8711610423576104148183610b3d565b5f610bf4565b86513d5f823e3d90fd5b50505090505f90604051610d4b81610b21565b6013815272139bc81c995b185d1a5bdb9cda1a5c08139195606a1b602082015290565b50505090505f90604051610d8181610b21565b600c81526b24b73b30b634b2103ab9b2b960a11b602082015290565b60405163fefd4e4f60e01b81526001600160a01b03918216600482015290602090829060249082907f0000000000000000000000000000000000000000000000000000000000000000165afa5f9181610dff575b50610dfc57505f1990565b90565b9091506020813d602011610e2b575b81610e1b60209383610b3d565b810103126105c25751905f610df1565b3d9150610e0e565b5f546001600160a01b03163303610e4657565b60405163118cdaa760e01b8152336004820152602490fdfea2646970667358221220234919cfc5ba28c220f4530f652c05742dbcdb558fd7b0feab03f04a7ae2fca164736f6c63430008190033","linkReferences":{}},"methodIdentifiers":{"breakupTime(address)":"341da313","createCompanion(address)":"2aa597d1","isSwapAllowed(address,uint256,bytes32)":"88d60caa","lastReconcile(address)":"5f4e947c","lastSwap(address)":"5006d241","owner()":"8da5cb5b","questValidity(bytes32)":"080f0e63","reconcile(address)":"09a18635","relationNFT()":"e283a6c4","renounceOwnership()":"715018a6","setQuestValidity(bytes32,uint256)":"48e1421f","transferOwnership(address)":"f2fde38b","updateAffection(address,int16,bytes32,bool,bool)":"ae77e1ff"},"id":20}