{"abi":[{"type":"constructor","inputs":[{"name":"_relationNFT","type":"address","internalType":"address"},{"name":"_router","type":"address","internalType":"address"}],"stateMutability":"nonpayable"},{"type":"function","name":"DEFAULT_ADMIN_ROLE","inputs":[],"outputs":[{"name":"","type":"bytes32","internalType":"bytes32"}],"stateMutability":"view"},{"type":"function","name":"REBATER_ROLE","inputs":[],"outputs":[{"name":"","type":"bytes32","internalType":"bytes32"}],"stateMutability":"view"},{"type":"function","name":"addLiquidity","inputs":[{"name":"amount","type":"uint256","internalType":"uint256"}],"outputs":[],"stateMutability":"nonpayable"},{"type":"function","name":"allowance","inputs":[{"name":"owner","type":"address","internalType":"address"},{"name":"spender","type":"address","internalType":"address"}],"outputs":[{"name":"","type":"uint256","internalType":"uint256"}],"stateMutability":"view"},{"type":"function","name":"approve","inputs":[{"name":"spender","type":"address","internalType":"address"},{"name":"value","type":"uint256","internalType":"uint256"}],"outputs":[{"name":"","type":"bool","internalType":"bool"}],"stateMutability":"nonpayable"},{"type":"function","name":"balanceOf","inputs":[{"name":"account","type":"address","internalType":"address"}],"outputs":[{"name":"","type":"uint256","internalType":"uint256"}],"stateMutability":"view"},{"type":"function","name":"collectSwapFee","inputs":[{"name":"tokenIn","type":"address","internalType":"address"},{"name":"amountIn","type":"uint256","internalType":"uint256"}],"outputs":[],"stateMutability":"nonpayable"},{"type":"function","name":"decimals","inputs":[],"outputs":[{"name":"","type":"uint8","internalType":"uint8"}],"stateMutability":"view"},{"type":"function","name":"getRoleAdmin","inputs":[{"name":"role","type":"bytes32","internalType":"bytes32"}],"outputs":[{"name":"","type":"bytes32","internalType":"bytes32"}],"stateMutability":"view"},{"type":"function","name":"grantRole","inputs":[{"name":"role","type":"bytes32","internalType":"bytes32"},{"name":"account","type":"address","internalType":"address"}],"outputs":[],"stateMutability":"nonpayable"},{"type":"function","name":"hasRole","inputs":[{"name":"role","type":"bytes32","internalType":"bytes32"},{"name":"account","type":"address","internalType":"address"}],"outputs":[{"name":"","type":"bool","internalType":"bool"}],"stateMutability":"view"},{"type":"function","name":"name","inputs":[],"outputs":[{"name":"","type":"string","internalType":"string"}],"stateMutability":"view"},{"type":"function","name":"poolBalance","inputs":[],"outputs":[{"name":"","type":"uint256","internalType":"uint256"}],"stateMutability":"view"},{"type":"function","name":"rebate","inputs":[{"name":"user","type":"address","internalType":"address"},{"name":"amountOut","type":"uint256","internalType":"uint256"}],"outputs":[{"name":"rebateAmount","type":"uint256","internalType":"uint256"}],"stateMutability":"nonpayable"},{"type":"function","name":"relationNFT","inputs":[],"outputs":[{"name":"","type":"address","internalType":"contract WooRelationNFT"}],"stateMutability":"view"},{"type":"function","name":"renounceRole","inputs":[{"name":"role","type":"bytes32","internalType":"bytes32"},{"name":"callerConfirmation","type":"address","internalType":"address"}],"outputs":[],"stateMutability":"nonpayable"},{"type":"function","name":"revokeRole","inputs":[{"name":"role","type":"bytes32","internalType":"bytes32"},{"name":"account","type":"address","internalType":"address"}],"outputs":[],"stateMutability":"nonpayable"},{"type":"function","name":"router","inputs":[],"outputs":[{"name":"","type":"address","internalType":"address"}],"stateMutability":"view"},{"type":"function","name":"supportsInterface","inputs":[{"name":"interfaceId","type":"bytes4","internalType":"bytes4"}],"outputs":[{"name":"","type":"bool","internalType":"bool"}],"stateMutability":"view"},{"type":"function","name":"symbol","inputs":[],"outputs":[{"name":"","type":"string","internalType":"string"}],"stateMutability":"view"},{"type":"function","name":"totalSupply","inputs":[],"outputs":[{"name":"","type":"uint256","internalType":"uint256"}],"stateMutability":"view"},{"type":"function","name":"transfer","inputs":[{"name":"to","type":"address","internalType":"address"},{"name":"value","type":"uint256","internalType":"uint256"}],"outputs":[{"name":"","type":"bool","internalType":"bool"}],"stateMutability":"nonpayable"},{"type":"function","name":"transferFrom","inputs":[{"name":"from","type":"address","internalType":"address"},{"name":"to","type":"address","internalType":"address"},{"name":"value","type":"uint256","internalType":"uint256"}],"outputs":[{"name":"","type":"bool","internalType":"bool"}],"stateMutability":"nonpayable"},{"type":"event","name":"Approval","inputs":[{"name":"owner","type":"address","indexed":true,"internalType":"address"},{"name":"spender","type":"address","indexed":true,"internalType":"address"},{"name":"value","type":"uint256","indexed":false,"internalType":"uint256"}],"anonymous":false},{"type":"event","name":"FeeCollected","inputs":[{"name":"from","type":"address","indexed":true,"internalType":"address"},{"name":"amount","type":"uint256","indexed":false,"internalType":"uint256"}],"anonymous":false},{"type":"event","name":"RebatePaid","inputs":[{"name":"user","type":"address","indexed":true,"internalType":"address"},{"name":"amount","type":"uint256","indexed":false,"internalType":"uint256"},{"name":"affection","type":"uint16","indexed":false,"internalType":"uint16"}],"anonymous":false},{"type":"event","name":"RoleAdminChanged","inputs":[{"name":"role","type":"bytes32","indexed":true,"internalType":"bytes32"},{"name":"previousAdminRole","type":"bytes32","indexed":true,"internalType":"bytes32"},{"name":"newAdminRole","type":"bytes32","indexed":true,"internalType":"bytes32"}],"anonymous":false},{"type":"event","name":"RoleGranted","inputs":[{"name":"role","type":"bytes32","indexed":true,"internalType":"bytes32"},{"name":"account","type":"address","indexed":true,"internalType":"address"},{"name":"sender","type":"address","indexed":true,"internalType":"address"}],"anonymous":false},{"type":"event","name":"RoleRevoked","inputs":[{"name":"role","type":"bytes32","indexed":true,"internalType":"bytes32"},{"name":"account","type":"address","indexed":true,"internalType":"address"},{"name":"sender","type":"address","indexed":true,"internalType":"address"}],"anonymous":false},{"type":"event","name":"Transfer","inputs":[{"name":"from","type":"address","indexed":true,"internalType":"address"},{"name":"to","type":"address","indexed":true,"internalType":"address"},{"name":"value","type":"uint256","indexed":false,"internalType":"uint256"}],"anonymous":false},{"type":"error","name":"AccessControlBadConfirmation","inputs":[]},{"type":"error","name":"AccessControlUnauthorizedAccount","inputs":[{"name":"account","type":"address","internalType":"address"},{"name":"neededRole","type":"bytes32","internalType":"bytes32"}]},{"type":"error","name":"ERC20InsufficientAllowance","inputs":[{"name":"spender","type":"address","internalType":"address"},{"name":"allowance","type":"uint256","internalType":"uint256"},{"name":"needed","type":"uint256","internalType":"uint256"}]},{"type":"error","name":"ERC20InsufficientBalance","inputs":[{"name":"sender","type":"address","internalType":"address"},{"name":"balance","type":"uint256","internalType":"uint256"},{"name":"needed","type":"uint256","internalType":"uint256"}]},{"type":"error","name":"ERC20InvalidApprover","inputs":[{"name":"approver","type":"address","internalType":"address"}]},{"type":"error","name":"ERC20InvalidReceiver","inputs":[{"name":"receiver","type":"address","internalType":"address"}]},{"type":"error","name":"ERC20InvalidSender","inputs":[{"name":"sender","type":"address","internalType":"address"}]},{"type":"error","name":"ERC20InvalidSpender","inputs":[{"name":"spender","type":"address","internalType":"address"}]}],"bytecode":{"object":"0x60c03461034a57601f906001600160401b03601f196113ba388190038581018316850191908483118684101761026557808692604094855283398101031261034a5761004a8361036d565b91610058602080950161036d565b9361006161034e565b600a8152692bb7b7a6282a37b5b2b760b11b8282015261007f61034e565b9660058852640574f4f4c560dc1b838901528151928484116102655760039384546001948582811c92168015610340575b8483101461032c5781858493116102de575b508390858311600114610284575f92610279575b50505f1982871b1c191690841b1784555b88519485116102655760049586548481811c9116801561025b575b8382101461024857838111610205575b50819286116001146101a1575050839291839161015f995f95610196575b50501b925f19911b1c19161790555b6001600160a01b031660805260a081905261015933610381565b506103ed565b50604051610eed908161048d8239608051818181610177015281816109a60152610e4b015260a0518181816101300152610b480152f35b015193505f80610130565b8594929193951698865f52835f20935f905b8b82106101ee5750508461015f9a106101d5575b50505050811b01905561013f565b01519060f8845f19921b161c191690555f8080806101c7565b8088859782949686015181550196019301906101b3565b875f52825f208480890160051c820192858a1061023f575b0160051c019085905b828110610234575050610112565b5f8155018590610226565b9250819261021d565b602288634e487b7160e01b5f525260245ffd5b90607f1690610102565b634e487b7160e01b5f52604160045260245ffd5b015190505f806100d6565b908987941691885f52855f20925f5b878282106102c857505084116102b1575b505050811b0184556100e7565b01515f1983891b60f8161c191690555f80806102a4565b8385015186558a97909501949384019301610293565b909150865f52835f208580850160051c820192868610610323575b918891869594930160051c01915b8281106103155750506100c2565b5f8155859450889101610307565b925081926102f9565b634e487b7160e01b5f52602260045260245ffd5b91607f16916100b0565b5f80fd5b60408051919082016001600160401b0381118382101761026557604052565b51906001600160a01b038216820361034a57565b6001600160a01b03165f8181525f8051602061139a833981519152602052604090205460ff166103e8575f8181525f8051602061139a83398151915260205260408120805460ff191660011790553391905f8051602061137a8339815191528180a4600190565b505f90565b6001600160a01b03165f8181527f04845c3bebe9f0f9c4a6da3da5ce06d5b49b774039c57471c4af4aee34e784d560205260409020547f57b27ef8c4cf90c6e58ad3d8463f867f3a26ec82434c1acbf5014201f98f830b919060ff1661048657815f52600560205260405f20815f5260205260405f20600160ff1982541617905533915f8051602061137a8339815191525f80a4600190565b50505f9056fe6080604090808252600480361015610015575f80fd5b5f3560e01c91826301ffc9a71461086e5750816306fdde031461077a578163095ea7b3146106d257816318160ddd146106b457816323b872dd146105c2578163248a9ca3146105985781632f2ff15d14610570578163313ce5671461055557816336568abe1461051157816351c6590a146104e457816370a08231146104ae578163802156a71461047757816391d148541461043357816395d89b411461033157816396365d4414610313578163a217fddf146102f9578163a8ed3765146102bf578163a9059cbb1461028f578163b542b5fd1461022b578163d547741f146101ef57508063dd62ed3e146101a6578063e283a6c4146101635763f887ea401461011d575f80fd5b3461015f575f36600319011261015f57517f00000000000000000000000000000000000000000000000000000000000000006001600160a01b03168152602090f35b5f80fd5b503461015f575f36600319011261015f57517f00000000000000000000000000000000000000000000000000000000000000006001600160a01b03168152602090f35b503461015f578060031936011261015f576020906101c26108ea565b6101ca610900565b9060018060a01b038091165f5260018452825f2091165f528252805f20549051908152f35b823461015f578060031936011261015f5761022991356102246001610212610900565b93835f5260056020525f200154610cb0565b610d50565b005b823461015f578060031936011261015f576102446108ea565b5061024d610c37565b606460243504906102608260065461094c565b600655519081527f06c5efeff5c320943d265dc4e5f1af95ad523555ce0c1957e367dda5514572df60203392a2005b823461015f578060031936011261015f576020906102b86102ae6108ea565b6024359033610acd565b5160018152f35b823461015f575f36600319011261015f57602090517f57b27ef8c4cf90c6e58ad3d8463f867f3a26ec82434c1acbf5014201f98f830b8152f35b823461015f575f36600319011261015f57602090515f8152f35b823461015f575f36600319011261015f576020906006549051908152f35b823461015f575f36600319011261015f578051905f9280549060018260011c9160018416938415610429575b6020948585108114610416578488529081156103f4575060011461039b575b610397868661038d828b0383610916565b51918291826108c0565b0390f35b5f9081529295507f8a35acfbc15ff81a39ae7d344fd709f28e8600b4aa8c65c6b64bfe7fe36bd19b5b8284106103e157505050826103979461038d92820101948661037c565b80548685018801529286019281016103c4565b60ff191687860152505050151560051b830101925061038d826103978661037c565b602283634e487b7160e01b5f525260245ffd5b92607f169261035d565b823461015f578060031936011261015f5760209161044f610900565b90355f5260058352815f209060018060a01b03165f52825260ff815f20541690519015158152f35b823461015f578060031936011261015f576020906104a76104966108ea565b61049e610c37565b6024359061096d565b9051908152f35b823461015f57602036600319011261015f576020906001600160a01b036104d36108ea565b165f525f8252805f20549051908152f35b3461015f57602036600319011261015f5761050c90356105048133610dc4565b60065461094c565b600655005b823461015f578060031936011261015f5761052a610900565b90336001600160a01b0383160361054657506102299135610d50565b5163334bd91960e11b81529050fd5b823461015f575f36600319011261015f576020905160128152f35b823461015f578060031936011261015f5761022991356105936001610212610900565b610cd2565b823461015f57602036600319011261015f57602091355f52600582526001815f2001549051908152f35b90503461015f57606036600319011261015f576105dd6108ea565b6105e5610900565b906044359260018060a01b038216805f526001602052855f20335f52602052855f2054915f198303610620575b6020876102b8888888610acd565b85831061068857811561067257331561065c57505f908152600160209081528682203383528152908690209185900390915582906102b8610612565b6024905f885191634a1406b160e11b8352820152fd5b6024905f88519163e602df0560e01b8352820152fd5b8651637dc7a0d960e11b8152339181019182526020820193909352604081018690528291506060010390fd5b823461015f575f36600319011261015f576020906002549051908152f35b823461015f578060031936011261015f576106eb6108ea565b602435903315610764576001600160a01b031690811561074e5760209350335f5260018452825f20825f52845280835f205582519081527f8c5be1e5ebec7d5bd14f71427d1e84f3dd0314c0f7b2291e5b200ac8c7c3b925843392a35160018152f35b8251634a1406b160e11b81525f81860152602490fd5b825163e602df0560e01b81525f81860152602490fd5b823461015f575f36600319011261015f578051905f9260035460018160011c91600181168015610864575b6020948585108214610851575083875290811561083157506001146107d7575b50505061038d82610397940383610916565b60035f9081529295507fc2575a0e9e593c00f959f8c92f12db2869c3395a3b0502d05e2516446f71f85b5b82841061081e57505050826103979461038d92820101946107c5565b8054868501880152928601928101610802565b60ff1916868501525050151560051b830101925061038d826103976107c5565b602290634e487b7160e01b5f525260245ffd5b92607f16926107a5565b903461015f57602036600319011261015f57359063ffffffff60e01b821680920361015f57602091637965db0b60e01b81149081156108af575b5015158152f35b6301ffc9a760e01b149050836108a8565b602060409281835280519182918282860152018484015e5f828201840152601f01601f1916010190565b600435906001600160a01b038216820361015f57565b602435906001600160a01b038216820361015f57565b90601f8019910116810190811067ffffffffffffffff82111761093857604052565b634e487b7160e01b5f52604160045260245ffd5b9190820180921161095957565b634e487b7160e01b5f52601160045260245ffd5b9061097782610e21565b915f198314610ac657604051631dd2fdb360e11b815260048101939093526001600160a01b03926020816024817f000000000000000000000000000000000000000000000000000000000000000088165afa8015610abb575f90610a7c575b61ffff91501691611f408310610a74576019810290808204601914901517156109595761271090049260065490818511610a6b575b84610a18575b5050505090565b848203918211610959577f82a9b652e16ab4ee5459fa8301653cd83a26ac89cc042350ac6a0c79adf3bfea92604092600655610a548682610dc4565b82519486865260208601521692a25f808080610a11565b93508093610a0b565b505050505f90565b506020813d602011610ab3575b81610a9660209383610916565b8101031261015f575161ffff8116810361015f5761ffff906109d6565b3d9150610a89565b6040513d5f823e3d90fd5b5050505f90565b6001600160a01b038082169391928415610c1f578116908115610c0757845f525f602052604093845f205490848210610bd657508390865f525f60205203845f2055815f52835f2083815401905581857fddf252ad1be2c89b69c2b068fc378daa952ba7f163c4a11628f55a4df523b3ef60208751878152a37f0000000000000000000000000000000000000000000000000000000000000000168091149081610bcb575b5080610bc1575b610b8257505050565b7f06c5efeff5c320943d265dc4e5f1af95ad523555ce0c1957e367dda5514572df9160646020920490610bb78260065461094c565b60065551908152a2565b5030831415610b79565b90508314155f610b72565b855163391434e360e21b81526001600160a01b03919091166004820152602481019190915260448101849052606490fd5b60405163ec442f0560e01b81525f6004820152602490fd5b604051634b637e8f60e11b81525f6004820152602490fd5b335f9081527f04845c3bebe9f0f9c4a6da3da5ce06d5b49b774039c57471c4af4aee34e784d560205260409020547f57b27ef8c4cf90c6e58ad3d8463f867f3a26ec82434c1acbf5014201f98f830b9060ff1615610c925750565b6044906040519063e2517d3f60e01b82523360048301526024820152fd5b805f52600560205260405f20335f5260205260ff60405f20541615610c925750565b90815f52600560205260405f209060018060a01b031690815f5260205260ff60405f205416155f14610d4a57815f52600560205260405f20815f5260205260405f20600160ff1982541617905533917f2f8788117e7eff1d82e926ec794901d17c78024a50270940304540a733656f0d5f80a4600190565b50505f90565b90815f52600560205260405f209060018060a01b031690815f5260205260ff60405f2054165f14610d4a57815f52600560205260405f20815f5260205260405f2060ff19815416905533917ff6391f5c32d9c69d2a47ea670b442974b53935d1edc7fd64eb21e047a839171b5f80a4600190565b6001600160a01b0316908115610c07577fddf252ad1be2c89b69c2b068fc378daa952ba7f163c4a11628f55a4df523b3ef602082610e055f9460025461094c565b60025584845283825260408420818154019055604051908152a3565b60405163fefd4e4f60e01b81526001600160a01b03918216600482015290602090829060249082907f0000000000000000000000000000000000000000000000000000000000000000165afa5f9181610e83575b50610e8057505f1990565b90565b9091506020813d602011610eaf575b81610e9f60209383610916565b8101031261015f5751905f610e75565b3d9150610e9256fea26469706673582212209007c382e1f6a52664494a2d6fbfb4b4790602dd87f89c9c772bf670e52fc8d664736f6c634300081900332f8788117e7eff1d82e926ec794901d17c78024a50270940304540a733656f0d05b8ccbb9d4d8fb16ea74ce3c29a41f1b461fbdaff4714a0d9a8eb05499746bc","linkReferences":{}},"methodIdentifiers":{"DEFAULT_ADMIN_ROLE()":"a217fddf","REBATER_ROLE()":"a8ed3765","addLiquidity(uint256)":"51c6590a","allowance(address,address)":"dd62ed3e","approve(address,uint256)":"095ea7b3","balanceOf(address)":"70a08231","collectSwapFee(address,uint256)":"b542b5fd","decimals()":"313ce567","getRoleAdmin(bytes32)":"248a9ca3","grantRole(bytes32,address)":"2f2ff15d","hasRole(bytes32,address)":"91d14854","name()":"06fdde03","poolBalance()":"96365d44","rebate(address,uint256)":"802156a7","relationNFT()":"e283a6c4","renounceRole(bytes32,address)":"36568abe","revokeRole(bytes32,address)":"d547741f","router()":"f887ea40","supportsInterface(bytes4)":"01ffc9a7","symbol()":"95d89b41","totalSupply()":"18160ddd","transfer(address,uint256)":"a9059cbb","transferFrom(address,address,uint256)":"23b872dd"},"id":17}