{"abi":[{"type":"constructor","inputs":[{"name":"_uniRouter","type":"address","internalType":"address"},{"name":"_guard","type":"address","internalType":"address"},{"name":"_lp","type":"address","internalType":"address"}],"stateMutability":"nonpayable"},{"type":"receive","stateMutability":"payable"},{"type":"function","name":"guard","inputs":[],"outputs":[{"name":"","type":"address","internalType":"contract WooSwapGuard"}],"stateMutability":"view"},{"type":"function","name":"lp","inputs":[],"outputs":[{"name":"","type":"address","internalType":"contract WooLP"}],"stateMutability":"view"},{"type":"function","name":"owner","inputs":[],"outputs":[{"name":"","type":"address","internalType":"address"}],"stateMutability":"view"},{"type":"function","name":"payGift","inputs":[],"outputs":[],"stateMutability":"payable"},{"type":"function","name":"renounceOwnership","inputs":[],"outputs":[],"stateMutability":"nonpayable"},{"type":"function","name":"setQuestValidity","inputs":[{"name":"questHash","type":"bytes32","internalType":"bytes32"},{"name":"validUntil","type":"uint256","internalType":"uint256"}],"outputs":[],"stateMutability":"nonpayable"},{"type":"function","name":"swapWithWoo","inputs":[{"name":"path","type":"address[]","internalType":"address[]"},{"name":"amountIn","type":"uint256","internalType":"uint256"},{"name":"minOut","type":"uint256","internalType":"uint256"},{"name":"to","type":"address","internalType":"address"},{"name":"deadline","type":"uint256","internalType":"uint256"},{"name":"questHash","type":"bytes32","internalType":"bytes32"}],"outputs":[],"stateMutability":"nonpayable"},{"type":"function","name":"transferOwnership","inputs":[{"name":"newOwner","type":"address","internalType":"address"}],"outputs":[],"stateMutability":"nonpayable"},{"type":"function","name":"uniRouter","inputs":[],"outputs":[{"name":"","type":"address","internalType":"contract IUniswapV2Router"}],"stateMutability":"view"},{"type":"function","name":"withdraw","inputs":[],"outputs":[],"stateMutability":"nonpayable"},{"type":"event","name":"GiftReceived","inputs":[{"name":"user","type":"address","indexed":true,"internalType":"address"},{"name":"amount","type":"uint256","indexed":false,"internalType":"uint256"},{"name":"newAffection","type":"uint16","indexed":false,"internalType":"uint16"}],"anonymous":false},{"type":"event","name":"OwnershipTransferred","inputs":[{"name":"previousOwner","type":"address","indexed":true,"internalType":"address"},{"name":"newOwner","type":"address","indexed":true,"internalType":"address"}],"anonymous":false},{"type":"event","name":"WooSwapExecuted","inputs":[{"name":"user","type":"address","indexed":true,"internalType":"address"},{"name":"tokenIn","type":"address","indexed":true,"internalType":"address"},{"name":"tokenOut","type":"address","indexed":true,"internalType":"address"},{"name":"amountIn","type":"uint256","indexed":false,"internalType":"uint256"},{"name":"amountOut","type":"uint256","indexed":false,"internalType":"uint256"},{"name":"rebateAmount","type":"uint256","indexed":false,"internalType":"uint256"}],"anonymous":false},{"type":"error","name":"InvalidPath","inputs":[]},{"type":"error","name":"OwnableInvalidOwner","inputs":[{"name":"owner","type":"address","internalType":"address"}]},{"type":"error","name":"OwnableUnauthorizedAccount","inputs":[{"name":"account","type":"address","internalType":"address"}]},{"type":"error","name":"SwapFailed","inputs":[]},{"type":"error","name":"SwapNotAuthorized","inputs":[{"name":"reason","type":"string","internalType":"string"}]}],"bytecode":{"object":"0x60e03461014657601f61112f38819003918201601f19168301916001600160401b0383118484101761014a57808492606094604052833981010312610146576100478161015e565b9061006060406100596020840161015e565b920161015e565b331561012e575f8054336001600160a01b0319821681178355604051956001600160a01b039586949093859391908416907f8be0079c531659141344cd1fd0a4f28419497f9722a3daafe3b4186f6b6457e09080a3166080521660a0521660c052610fbc90816101738239608051818181610146015281816103380152610406015260a0518181816102350152818161048701528181610549015281816105b2015281816106b201528181610bc001528181610c640152610dfe015260c0518181816107660152610d380152f35b604051631e4fbdf760e01b81525f6004820152602490fd5b5f80fd5b634e487b7160e01b5f52604160045260245ffd5b51906001600160a01b03821682036101465756fe60806040526004361015610022575b3615610018575f80fd5b610020610dc4565b005b5f803560e01c806303f5209814610d67578063313c06a014610d235780633ccfd60b14610cde57806348e1421f14610c48578063715018a614610bef5780637ceab3b114610baa578063836fb8df1461019c5780638da5cb5b14610175578063a0e47bf6146101305763f2fde38b1461009b575061000e565b3461012d57602036600319011261012d576004356001600160a01b0381811691829003610129576100ca610f46565b8115610110575f54826bffffffffffffffffffffffff60a01b8216175f55167f8be0079c531659141344cd1fd0a4f28419497f9722a3daafe3b4186f6b6457e05f80a380f35b604051631e4fbdf760e01b815260048101849052602490fd5b5f80fd5b80fd5b503461012d578060031936011261012d576040517f00000000000000000000000000000000000000000000000000000000000000006001600160a01b03168152602090f35b503461012d578060031936011261012d57546040516001600160a01b039091168152602090f35b503461012d5760c036600319011261012d5767ffffffffffffffff6004351161012d5736602360043501121561012d5767ffffffffffffffff600435600401351161012d573660246004356004013560051b60043501011161012d576064356001600160a01b03811690036101295760405163446b065560e11b8152336004820152602480359082015260a435604482015281816064817f00000000000000000000000000000000000000000000000000000000000000006001600160a01b03165afa90811561063d5782908392610afa575b5015610abb575060026004356004013510610aa9576004356004013515610a95576001600160a01b036102a6600435602401610f13565b166004803501355f19810111610a81576004803501355f1981011015610a6d576001600160a01b036102e860048035908101355f190160051b01602401610f13565b16906040516323b872dd60e01b8152336004820152306024820152602435604482015260208160648187865af180156109ec57610a34575b5060405163095ea7b360e01b81526001600160a01b037f0000000000000000000000000000000000000000000000000000000000000000166004820152602480359082015260208160448187865af180156109ec576109f7575b506040516370a0823160e01b8152306004820152602081602481865afa80156109ec576109c1575b506040516338ed173960e01b815260a481016024356004830152604435602483015260a06044830152600435600401359052838160c48101602460043501835b60043560040135811061098f575050306064830152608480359083015281900381837f00000000000000000000000000000000000000000000000000000000000000006001600160a01b03165af18491816108ce575b5061044f5760405163081ceff360e41b8152600490fd5b80515f1981019081116108ba5781518110156108a65760051b016020908101516040516338a0e9b160e21b81529091859190816004817f00000000000000000000000000000000000000000000000000000000000000006001600160a01b03165afa908115610689576024916020918891610889575b5060405163fefd4e4f60e01b815233600482015292839182906001600160a01b03165afa869181610855575b5061069c575b508181610694575b5060405163a9059cbb60e01b81526064356001600160a01b031660048201526024810183905260208160448189895af180156106895761064c575b508461054760a435610f71565b7f00000000000000000000000000000000000000000000000000000000000000006001600160a01b03163b156106485760405163ae77e1ff60e01b815233600482015260c8602482015260a480356044830152606482018490529115156084820152908290829081837f00000000000000000000000000000000000000000000000000000000000000006001600160a01b03165af1801561063d57610625575b5050604051916024358352602083015260408201527f49c36a7676e16a89c111b3805b389f619a0b984924986aa84eecec84c86a1c6b60603392a480f35b61062e90610d7a565b61063957845f6105e7565b8480fd5b6040513d84823e3d90fd5b5080fd5b6020813d602011610681575b8161066560209383610da2565b8101031261067d5761067690610f06565b505f61053a565b8580fd5b3d9150610658565b6040513d88823e3d90fd5b91505f6104ff565b6040516338a0e9b160e21b8152906020826004817f00000000000000000000000000000000000000000000000000000000000000006001600160a01b03165afa91821561084a578792610818575b50604051631dd2fdb360e11b8152600481019190915290602090829060249082906001600160a01b03165afa9081156106895786916107d9575b5061ffff611f409116101561073a575b5f6104f7565b5060405163802156a760e01b815233600482015260248101829052602081604481886001600160a01b037f0000000000000000000000000000000000000000000000000000000000000000165af19081156107ce57859161079c575b50610734565b90506020813d6020116107c6575b816107b760209383610da2565b8101031261012957515f610796565b3d91506107aa565b6040513d87823e3d90fd5b90506020813d602011610810575b816107f460209383610da2565b8101031261067d575161ffff8116810361067d5761ffff610724565b3d91506107e7565b602091925061083c90823d8411610843575b6108348183610da2565b810190610f27565b91906106ea565b503d61082a565b6040513d89823e3d90fd5b9091506020813d602011610881575b8161087160209383610da2565b810103126101295751905f6104f1565b3d9150610864565b6108a09150823d8411610843576108348183610da2565b5f6104c5565b634e487b7160e01b85526032600452602485fd5b634e487b7160e01b85526011600452602485fd5b9091503d8086833e6108e08183610da2565b602082828101031261067d57815167ffffffffffffffff811161098b57818301601f82850101121561098b57808301519267ffffffffffffffff8411610977578360051b91604051946109366020850187610da2565b8552602080860193828401010193820184116109735701602001905b82821061096357505050905f610438565b8151815260209182019101610952565b8880fd5b634e487b7160e01b88526041600452602488fd5b8680fd5b909350915082356001600160a01b038116919082900361012957602081600193829352019301910191839187936103e2565b602090813d83116109e5575b6109d78183610da2565b81010312610129575f6103a2565b503d6109cd565b6040513d86823e3d90fd5b6020813d602011610a2c575b81610a1060209383610da2565b81010312610a2857610a2190610f06565b505f61037a565b8380fd5b3d9150610a03565b6020813d602011610a65575b81610a4d60209383610da2565b81010312610a2857610a5e90610f06565b505f610320565b3d9150610a40565b634e487b7160e01b5f52603260045260245ffd5b634e487b7160e01b82526011600452602482fd5b634e487b7160e01b81526032600452602490fd5b6040516320db826760e01b8152600490fd5b6044906020604051938492634141332160e01b84528260048501528051928391826024870152018585015e828201840152601f01601f19168101030190fd5b9150503d8083833e610b0c8183610da2565b810190604081830312610b9257610b2281610f06565b9060208101519067ffffffffffffffff8211610639570182601f82011215610a2857805167ffffffffffffffff8111610b965790849160405194610b706020601f19601f8501160187610da2565b81865260208284010111610b92578060208093018387015e840101525f61026f565b8280fd5b634e487b7160e01b85526041600452602485fd5b503461012d578060031936011261012d576040517f00000000000000000000000000000000000000000000000000000000000000006001600160a01b03168152602090f35b503461012d578060031936011261012d57610c08610f46565b5f80546001600160a01b0319811682556001600160a01b03167f8be0079c531659141344cd1fd0a4f28419497f9722a3daafe3b4186f6b6457e08280a380f35b503461012957604036600319011261012957610c62610f46565b7f00000000000000000000000000000000000000000000000000000000000000006001600160a01b0316803b15610129575f80916044604051809481936348e1421f60e01b8352600435600484015260243560248401525af18015610cd357610cc9575080f35b6100209150610d7a565b6040513d5f823e3d90fd5b34610129575f36600319011261012957610cf6610f46565b5f805481908190819047906001600160a01b0316828215610d1a575bf115610cd357005b506108fc610d12565b34610129575f366003190112610129576040517f00000000000000000000000000000000000000000000000000000000000000006001600160a01b03168152602090f35b5f36600319011261012957610020610dc4565b67ffffffffffffffff8111610d8e57604052565b634e487b7160e01b5f52604160045260245ffd5b90601f8019910116810190811067ffffffffffffffff821117610d8e57604052565b3415610ed257670de0b6b3a76400003404606481029080820460641490151715610ebe5761ffff809116906103e8808311610eb6575b50167f00000000000000000000000000000000000000000000000000000000000000006001600160a01b0316803b15610129575f809160a46040518094819363ae77e1ff60e01b83523360048401528760010b6024840152816044840152600160648401528160848401525af18015610cd357610ea7575b506040519034825260208201527fbd51a40ae5ad59b04c3536397c5f2bcd4d94bda7e0955e3c1054f4f51692046160403392a2565b610eb090610d7a565b5f610e72565b91505f610dfa565b634e487b7160e01b5f52601160045260245ffd5b60405162461bcd60e51b815260206004820152600c60248201526b139bc819da599d081cd95b9d60a21b6044820152606490fd5b5190811515820361012957565b356001600160a01b03811681036101295790565b9081602091031261012957516001600160a01b03811681036101295790565b5f546001600160a01b03163303610f5957565b60405163118cdaa760e01b8152336004820152602490fd5b8015610f81576003600191061490565b505f9056fea2646970667358221220128795ff463ca334607d36fa35f216787de1bf24f6d26984e095b82be7a777f564736f6c63430008190033","linkReferences":{}},"methodIdentifiers":{"guard()":"7ceab3b1","lp()":"313c06a0","owner()":"8da5cb5b","payGift()":"03f52098","renounceOwnership()":"715018a6","setQuestValidity(bytes32,uint256)":"48e1421f","swapWithWoo(address[],uint256,uint256,address,uint256,bytes32)":"836fb8df","transferOwnership(address)":"f2fde38b","uniRouter()":"a0e47bf6","withdraw()":"3ccfd60b"},"id":19}